S01200002E2F44656275672F4F726D2E73313941
S315200000000248854600F0D8FBFEE7C04600C0012026
S3152000001080B584B000AFF860B9607A60FB68BA68D2
S315200000205A60FB687A689A60C046BD4604B080BDB7
S3152000003080B584B000AF78600023FB6017E07B6852
S315200000401A68FB6804335B00D31804331B78180046
S315200000507B681A68FB6804335B00D31805331B786A
S315200000600122190000F0AAFAFB680133FB607B68C5
S315200000701B681B68FA689A42E1DBC046BD4604B09D
S3152000008080BD80B584B000AF78600023FB6017E0A8
S315200000907B681A68FB6804335B00D31804331B782B
S315200000A018007B681A68FB6804335B00D318053395
S315200000B01B780022190000F081FAFB680133FB60EF
S315200000C07B681B681B68FA689A42E1DBC046BD461E
S315200000D004B080BD80B584B000AF78607B6818001E
S315200000E0FFF7CFFF0023FB602EE07B681A68FB68D2
S315200000F004335B00D318043318787B685B68D9B265
S315200001007B681A684318D9B2FB6804335B00D3189E
S3152000011004330A1C1A707B681A68FB6804335B0078
S31520000120D318053318787B689B68D9B27B681A6820
S315200001304318D9B2FB6804335B00D31805330A1C75
S315200001401A70FB680133FB607B681B681B68FA68C2
S315200001509A42CADB7B68DA687B685B68D2187B6860
S31520000160DA607B681A697B689B68D2187B681A619B
S315200001707B68DB68002B04DC7B685B685A427B6803
S315200001805A607B68DA687B681B685B68D318802BAB
S3152000019004DD7B685B685A427B685A607B681B6912
S315200001A0002B04DC7B689B685A427B689A607B68DC
S315200001B01A697B681B689B68D318402B04DD7B6813
S315200001C09B685A427B689A607B681800FFF730FF6D
S315200001D0C046BD4604B080BD80B584B000AF0200E5
S315200001E0FB1D1A700F4A0F203B18127D1A703B1800
S315200001F03A18127804218A431A70FB1D1B785BB2C9
S31520000200042293435AB23B181B785BB213435AB26B
S315200002103B181A70034A3B181B781375C046BD4617
S3152000022004B080BD0010024080B584B000AF02004B
S31520000230FB1D1A700F4A0F203B18127D1A703B18AF
S315200002403A18127804218A431A70FB1D1B785BB278
S31520000250DB435BB23A18127852B213405AB23B18BB
S315200002601A70044A3B181B781375C046BD4604B065
S3152000027080BDC0460010024080B582B000AF0200AB
S31520000280FB1D1A70FB1D1B78082B0CD002DC002BE3
S3152000029005D01AE0102B0DD0182B12D015E01820FF
S315200002A0FFF7C2FF11E00820FFF796FF1020FFF7A7
S315200002B0BBFF0AE01020FFF78FFF0820FFF7B4FFEF
S315200002C003E01820FFF788FFC046C046BD4602B0AF
S315200002D080BD80B582B000AF4020FFF7A5FF144B4C
S315200002E0144A1A600120FFF79FFF0220FFF774FFD0
S315200002F000F026FA4020FFF76FFF00F021FA0C4BA2
S315200003005B7CDAB2FB1D7F218A431A704020FFF7FF
S315200003108BFF00F015FAFB1D1B78002B00D0E9E7B8
S31520000320C046034B044A1A60C046BD4602B080BD93
S3152000033000100240555500005555555580B584B0DE
S3152000034000AF0200FB1D1A704020FFF76DFF1C4B0B
S315200003501C4A1A600320FFF73FFFFB1D1B7818007D
S31520000360FFF78AFF00F0ECF94020FFF735FF00F099
S31520000370E7F9134A0F23FB18527C1A704020FFF727
S3152000038053FF0F4B104A1A60FB1D1B78082213409F
S3152000039004D00820FFF770FFFFF79BFFFB1D1B789B
S315200003A01022134004D01020FFF766FFFFF791FFBD
S315200003B00F23FB181B781800BD4604B080BDC0462D
S315200003C000100240555500005555555580B582B050
S315200003D000AF0200FB1D1A70FB1D1B781800FFF7EB
S315200003E0ADFFFB1D1B781800FFF7A8FF03001800C0
S315200003F0BD4602B080BD80B582B000AF0200FB1DB5
S315200004001A70BB1D0A1C1A70194AFB1D1B785375DE
S31520000410BB1D1B781800FFF72FFF00F091F9402035
S31520000420FFF7DAFE00F08CF94020FFF7FDFEBB1D3A
S315200004301B780822134004D00820FFF71DFFFFF782
S3152000044048FFBB1D1B781022134004D01020FFF755
S3152000045013FFFFF73EFF064B00225A754020FFF799
S31520000460BBFE0020FFF708FFC046BD4602B080BD98
S315200004700010024080B582B000AF0200FB1D1A704A
S31520000480BB1D0A1C1A704020FFF7CEFEBB1D1B7831
S315200004901800FFF7F1FE0320FFF7C6FEBB1D1A78F2
S315200004A0FB1D1B7811001800FFF7A5FFC046BD46AF
S315200004B002B080BD80B582B000AF0200FB1D1A706D
S315200004C0BB1D0A1C1A704020FFF7AEFEBB1D1B7811
S315200004D01800FFF7D1FE0120FFF77EFE0220FFF76E
S315200004E0A3FEBB1D1A78FB1D1B7811001800FFF711
S315200004F082FFC046BD4602B080BD80B582B000AF47
S31520000500BB1D00221A7023E0BB1D1B7848225242D5
S315200005101343DBB218211800FFF7ACFF1821402047
S31520000520FFF7A8FFFB1D00221A7008E01821002003
S31520000530FFF7C0FFFB1D1A78FB1D01321A70FB1D49
S315200005401B783F2BF2D9BB1D1A78BB1D01321A70BE
S31520000550BB1D1B78072BD7D9C046BD4602B080BD30
S3152000056080B500AF4020FFF737FE0A2000F0F1F8F3
S315200005707820FFF759FE1E2000F001F92020FFF712
S315200005802BFE642000F0FBF818213E20FFF772FFB7
S3152000059018213F20FFF76EFF1821C020FFF76AFFC2
S315200005A018214020FFF766FF1821B820FFF762FFC9
S315200005B00020FFF761FEC046BD4680BDB0B588B0BD
S315200005C000AFF860B9607A60FB68002B00DC8EE033
S315200005D0BB68002B00DC8AE0FB68802B00DD86E010
S315200005E0BB68402B00DD82E0BB68013B002B00DAB4
S315200005F00733DB10BB61BB68013B3F4A134004D580
S31520000600013B08225242134301331A00012393402F
S315200006101A001F23FB181A707B68002B05D11F2296
S31520000620BB18BA181278D2431A70FB68402B07DD24
S315200006301E23FB1810221A70FB68413BFB6006E064
S315200006401E23FB1808221A70FB68013BFB60FB681F
S315200006505BB2402213435BB2DAB21E257B191B78AC
S3152000066019001000FFF706FFBB695BB24822524211
S3152000067013435BB2DAB27B191B7819001000FFF71F
S31520000680F9FE1723FC187B191B781800FFF79EFE2E
S3152000069003002370FB685BB2402213435BB2DAB2DD
S315200006A07B191B7819001000FFF7E4FE7B68002BEE
S315200006B009D01F22BB18B9181722BA180978127840
S315200006C00A431A7008E01F22BB18BA181721791896
S315200006D0127809780A401A701E23FB181A781F23ED
S315200006E0FB181B7811001800FFF7E4FE00E0C04657
S315200006F0BD4608B0B0BDC0460700008080B500AF3B
S315200007000C4B00221A600C4B29221A600B4B00223C
S315200007101A60084B05221A60C046064B1A688023C9
S315200007205B021340F9D0034B00221A60C046BD4637
S3152000073080BDC04610E000E014E000E018E000E0D4
S3152000074080B500AFFFF7DAFFFFF7D8FFC046BD46FA
S3152000075080BD80B582B000AF786007E0FFF7CEFF9E
S31520000760FFF7CCFFFFF7CAFFFFF7C8FF7B685A1ECB
S315200007707A60002BF2D1C046BD4602B080BD80B55E
S3152000078082B000AF786002E00120FFF7E2FF7B68CD
S315200007905A1E7A60002BF7D1C046BD4602B080BDF6
S315200007A080B500AF024B034A1A60C046BD4680BDE5
S315200007B0001002405555555580B582B000AF0A4B02
S315200007C07B60FFF7EDFFFFF7CBFE7B681B6A78683F
S315200007D00122042198477B68DB697A6810009847D4
S315200007E02820FFF7CCFFF6E7200800200C000000A9
S315200007F004000000040000000001000201000101C5
S3152000080001020103020002010202020303010302A4
S3152000081000000000000000000000000000000000B2
S31520000820EC0700200000000000000000010000008E
S31520000830010000003100002083000020D5000020A8
S30920000840110000205D
S70520000000DA
